{
  "contractName": "split",
  "abi": [
    {
      "inputs": [],
      "stateMutability": "nonpayable",
      "type": "constructor"
    },
    {
      "anonymous": false,
      "inputs": [
        {
          "indexed": false,
          "internalType": "address",
          "name": "from",
          "type": "address"
        },
        {
          "indexed": false,
          "internalType": "address",
          "name": "receiver1",
          "type": "address"
        },
        {
          "indexed": false,
          "internalType": "address",
          "name": "receiver2",
          "type": "address"
        },
        {
          "indexed": false,
          "internalType": "address",
          "name": "receiver3",
          "type": "address"
        },
        {
          "indexed": false,
          "internalType": "uint256",
          "name": "amount",
          "type": "uint256"
        }
      ],
      "name": "Sent",
      "type": "event"
    },
    {
      "inputs": [
        {
          "internalType": "address",
          "name": "",
          "type": "address"
        }
      ],
      "name": "balances",
      "outputs": [
        {
          "internalType": "uint256",
          "name": "",
          "type": "uint256"
        }
      ],
      "stateMutability": "view",
      "type": "function",
      "constant": true
    },
    {
      "inputs": [],
      "name": "owner",
      "outputs": [
        {
          "internalType": "address",
          "name": "",
          "type": "address"
        }
      ],
      "stateMutability": "view",
      "type": "function",
      "constant": true
    },
    {
      "inputs": [
        {
          "internalType": "address",
          "name": "receiver",
          "type": "address"
        },
        {
          "internalType": "uint256",
          "name": "amount",
          "type": "uint256"
        }
      ],
      "name": "coin",
      "outputs": [],
      "stateMutability": "nonpayable",
      "type": "function"
    },
    {
      "inputs": [
        {
          "internalType": "uint256",
          "name": "amount",
          "type": "uint256"
        },
        {
          "internalType": "address",
          "name": "receiver1",
          "type": "address"
        },
        {
          "internalType": "address",
          "name": "receiver2",
          "type": "address"
        },
        {
          "internalType": "address",
          "name": "receiver3",
          "type": "address"
        }
      ],
      "name": "send",
      "outputs": [],
      "stateMutability": "nonpayable",
      "type": "function"
    }
  ],
  "bytecode": "0x608060405234801561001057600080fd5b50336000806101000a81548173ffffffffffffffffffffffffffffffffffffffff021916908373ffffffffffffffffffffffffffffffffffffffff160217905550610951806100606000396000f3fe608060405234801561001057600080fd5b506004361061004c5760003560e01c806327e235e31461005157806348749e4e14610081578063611091a31461009d5780638da5cb5b146100b9575b600080fd5b61006b600480360381019061006691906104fc565b6100d7565b6040516100789190610542565b60405180910390f35b61009b60048036038101906100969190610589565b6100ef565b005b6100b760048036038101906100b291906105f0565b610332565b005b6100c1610475565b6040516100ce919061063f565b60405180910390f35b60016020528060005260406000206000915090505481565b600160003373ffffffffffffffffffffffffffffffffffffffff1673ffffffffffffffffffffffffffffffffffffffff16815260200190815260200160002054841115610171576040517f08c379a0000000000000000000000000000000000000000000000000000000008152600401610168906106b7565b60405180910390fd5b83600160003373ffffffffffffffffffffffffffffffffffffffff1673ffffffffffffffffffffffffffffffffffffffff16815260200190815260200160002060008282546101c09190610706565b925050819055506003846101d49190610769565b600160008573ffffffffffffffffffffffffffffffffffffffff1673ffffffffffffffffffffffffffffffffffffffff1681526020019081526020016000206000828254610222919061079a565b925050819055506003846102369190610769565b600160008473ffffffffffffffffffffffffffffffffffffffff1673ffffffffffffffffffffffffffffffffffffffff1681526020019081526020016000206000828254610284919061079a565b925050819055506003846102989190610769565b600160008373ffffffffffffffffffffffffffffffffffffffff1673ffffffffffffffffffffffffffffffffffffffff16815260200190815260200160002060008282546102e6919061079a565b925050819055507f95d20b8cc14fb0b07771beba66604f5c580b5dd12afefa9db7c7ee65062332e533848484886040516103249594939291906107f0565b60405180910390a150505050565b60008054906101000a900473ffffffffffffffffffffffffffffffffffffffff1673ffffffffffffffffffffffffffffffffffffffff163373ffffffffffffffffffffffffffffffffffffffff16146103c0576040517f08c379a00000000000000000000000000000000000000000000000000000000081526004016103b79061088f565b60405180910390fd5b789f4f2726179a224501d762422c946590d91000000000000000811061041b576040517f08c379a0000000000000000000000000000000000000000000000000000000008152600401610412906108fb565b60405180910390fd5b80600160008473ffffffffffffffffffffffffffffffffffffffff1673ffffffffffffffffffffffffffffffffffffffff168152602001908152602001600020600082825461046a919061079a565b925050819055505050565b60008054906101000a900473ffffffffffffffffffffffffffffffffffffffff1681565b600080fd5b600073ffffffffffffffffffffffffffffffffffffffff82169050919050565b60006104c98261049e565b9050919050565b6104d9816104be565b81146104e457600080fd5b50565b6000813590506104f6816104d0565b92915050565b60006020828403121561051257610511610499565b5b6000610520848285016104e7565b91505092915050565b6000819050919050565b61053c81610529565b82525050565b60006020820190506105576000830184610533565b92915050565b61056681610529565b811461057157600080fd5b50565b6000813590506105838161055d565b92915050565b600080600080608085870312156105a3576105a2610499565b5b60006105b187828801610574565b94505060206105c2878288016104e7565b93505060406105d3878288016104e7565b92505060606105e4878288016104e7565b91505092959194509250565b6000806040838503121561060757610606610499565b5b6000610615858286016104e7565b925050602061062685828601610574565b9150509250929050565b610639816104be565b82525050565b60006020820190506106546000830184610630565b92915050565b600082825260208201905092915050565b7f446f6e74206861766520656e6f756768206d6f6e657900000000000000000000600082015250565b60006106a160168361065a565b91506106ac8261066b565b602082019050919050565b600060208201905081810360008301526106d081610694565b9050919050565b7f4e487b7100000000000000000000000000000000000000000000000000000000600052601160045260246000fd5b600061071182610529565b915061071c83610529565b92508282101561072f5761072e6106d7565b5b828203905092915050565b7f4e487b7100000000000000000000000000000000000000000000000000000000600052601260045260246000fd5b600061077482610529565b915061077f83610529565b92508261078f5761078e61073a565b5b828204905092915050565b60006107a582610529565b91506107b083610529565b9250827fffffffffffffffffffffffffffffffffffffffffffffffffffffffffffffffff038211156107e5576107e46106d7565b5b828201905092915050565b600060a0820190506108056000830188610630565b6108126020830187610630565b61081f6040830186610630565b61082c6060830185610630565b6108396080830184610533565b9695505050505050565b7f4163636573732064656e69656400000000000000000000000000000000000000600082015250565b6000610879600d8361065a565b915061088482610843565b602082019050919050565b600060208201905081810360008301526108a88161086c565b9050919050565b7f5468652053756d20697320746f6f206269670000000000000000000000000000600082015250565b60006108e560128361065a565b91506108f0826108af565b602082019050919050565b60006020820190508181036000830152610914816108d8565b905091905056fea2646970667358221220086dedfac389f602e703c681f9682ce33765915e323adbcd692a2c18d38a689d64736f6c634300080b0033",
  "immutableReferences": {},
  "source": "// SPDX-License-Identifier: MIT\npragma solidity >=0.4.22 <0.9.0;\n\ncontract split {\n  address public owner;\n  mapping(address => uint) public balances;\n  event Sent(address from, address receiver1, address receiver2, address receiver3, uint amount);\n\n  constructor() public {\n    owner= msg.sender;\n  }\n\n  function coin(address receiver, uint amount) public {\n    require (msg.sender == owner, \"Access denied\");\n    require (amount < 1e60, \"The Sum is too big\");\n    balances[receiver] += amount;\n  }\n  function send(uint amount, address receiver1, address receiver2, address receiver3) public {\n    require(amount <= balances[msg.sender], \"Dont have enough money\");\n    balances[msg.sender] -= amount;\n    balances[receiver1] += amount/3;\n    balances[receiver2] += amount/3;\n    balances[receiver3] += amount/3;\n    emit Sent(msg.sender, receiver1, receiver2, receiver3, amount);\n  }\n}\n",
  "sourcePath": "C:\\Users\\RT\\desktop\\simplefinance\\contracts\\split.sol",
  "compiler": {
    "name": "solc",
    "version": "0.8.11+commit.d7f03943.Emscripten.clang"
  },
  "schemaVersion": "3.4.4",
  "updatedAt": "2022-01-31T10:16:22.552Z",
  "networkType": "ethereum",
  "devdoc": {
    "kind": "dev",
    "methods": {},
    "version": 1
  },
  "userdoc": {
    "kind": "user",
    "methods": {},
    "version": 1
  }
}